{
  "_format": "hh-sol-artifact-1",
  "contractName": "ConfidentialCounter",
  "sourceName": "contracts/ConfidentialCounter.sol",
  "abi": [
    {
      "inputs": [],
      "stateMutability": "nonpayable",
      "type": "constructor"
    },
    {
      "inputs": [],
      "name": "getCounter",
      "outputs": [
        {
          "internalType": "uint256",
          "name": "",
          "type": "uint256"
        }
      ],
      "stateMutability": "view",
      "type": "function"
    },
    {
      "inputs": [
        {
          "internalType": "uint256",
          "name": "value",
          "type": "uint256"
        }
      ],
      "name": "increment",
      "outputs": [],
      "stateMutability": "nonpayable",
      "type": "function"
    }
  ],
  "bytecode": "0x608060405234801561001057600080fd5b50600080819055506101c4806100276000396000f3fe608060405234801561001057600080fd5b50600436106100365760003560e01c80637cf5dab01461003b5780638ada066e14610057575b600080fd5b610055600480360381019061005091906100d4565b610075565b005b61005f610090565b60405161006c9190610110565b60405180910390f35b80600080828254610086919061015a565b9250508190555050565b60008054905090565b600080fd5b6000819050919050565b6100b18161009e565b81146100bc57600080fd5b50565b6000813590506100ce816100a8565b92915050565b6000602082840312156100ea576100e9610099565b5b60006100f8848285016100bf565b91505092915050565b61010a8161009e565b82525050565b60006020820190506101256000830184610101565b92915050565b7f4e487b7100000000000000000000000000000000000000000000000000000000600052601160045260246000fd5b60006101658261009e565b91506101708361009e565b92508282019050808211156101885761018761012b565b5b9291505056fea2646970667358221220c25910bb292ef68b3f2da52a2d01507b4660614e2eee3b0ffc118c17ff1db1c164736f6c63430008180033",
  "linkReferences": {},
  "deployedLinkReferences": {}
}